:020000002728AF
:100008007E14803120007F08F000111C1628991DED
:1000180012280130D6070030D73D1428D601D70161
:1000280011102328911F23285708D9005608D800F3
:100038001608D8071708D93DD601D70191137008BB
:10004800FF007E10090028284E308400003085000B
:100058000E30C2237E1020003128452320001814BA
:10006800991122000C102000191961285203530419
:10007800031D48285908D5005808D40099121916A4
:100088009113960197015C2800305302023003193E
:100098005202031C5C28D001D1015908DD00580820
:1000A800DC0099161916911396019701D201D30114
:1000B80099150130D2070030D33D55085D02031D64
:1000C800672854085C0203189E285D08FA005C083B
:1000D800F900B02379082000A3007A08A4007B085F
:1000E800A5005508FA005408F900B0237908200043
:1000F800A0007A08A1007B08A200B22120002008F5
:10010800B3002108B4002208B5000030B0007A30EE
:10011800B1004430B200FF2020003008C000310890
:10012800C1003208C2005A2220004108D10040080C
:10013800D000A7280C1EA528E830D0000330D10035
:10014800A728D001D1010A30F1000030F200500890
:10015800053EF3000030513DF4007C237208200076
:10016800CF007108CE0000304F020C3003194E0248
:100178000318C12822008C12F728003020004F02F3
:100188000C3003194E02031CD32800304F021930DB
:1001980003194E020318D32822008C12FC280030C1
:1001A80020004F02193003194E02031CE6280030C4
:1001B8004F02263003194E020318E62822008C1637
:1001C8000C10FD28003020004F02263003194E0283
:1001D800031CFA2800304F02653003194E02031839
:1001E800FA2822008C160C108C10372822008C1646
:1001F8000C148C14372820003008B6003108B700DA
:100208003208B8000310370D380DB9003908BA00A4
:100218003A08031D16290030B0000030B100003044
:10022800B20008003308B6003408B7003508B80033
:100238000310370D380DB9003908BF003F08031DFA
:100248002C290030B0000030B1000030B2000800A6
:100258003F087B3EB6003608BA073008B6003108BA
:10026800B7003208B8001030B836B70CB60C890B96
:1002780038293608B9003908BF003308B6003408F1
:10028800B7003508B8001030B836B70CB60C890B73
:1002980048293608B9003908BF068030B600360844
:1002A800BF05B117B417FF30B305FF30B4050030F0
:1002B800B5050030BB000030BC000030BD00073081
:1002C800B6003608BE00301C6F293308BB07340857
:1002D800BC3D3508BD3D0130B236B10CB00C890BC0
:1002E80070290130B335B40DB50D890B762901306D
:1002F800BE02031D67290930B6003608BE00301C4F
:100308008B293308BB073408BC3D3508BD3D013097
:10031800B236B10CB00C890B8C290130BD36BC0C3F
:10032800BB0C890B92290130BE02031D83293B08AF
:10033800F1003C08F2003D08F3003A08B600360820
:10034800F4003F08B7003708F500E12271082000E3
:10035800B0007208B1007308B2000800200023083A
:10036800A6002408A7002508A8000310270D280DBB
:10037800A9002908AE002E08031DC9290030A000D5
:100388000030A1000030A20008002008A6002108C3
:10039800A7002208A8000310270D280DA900290886
:1003A800AF002F08031DDF290030A0000030A10096
:1003B8000030A20008000030AB000030AC00003074
:1003C800AD0089302F07A6002608AE022308A60034
:1003D8002408A7002508A8001030A836A70CA60CEA
:1003E800890BF1292608A9002908AF002008A600D2
:1003F8002108A7002208A8001030A836A70CA60CD0
:10040800890B012A2608A9002908AF068030A60012
:100418002608AF05A417FF30A305FF30A405003058
:10042800A505A117FF30A005FF30A1050030A205E2
:100438001830A6002608AA000130AB35AC0DAD0D6A
:10044800890B212A22082502031D302A21082402AB
:10045800031D302A20082302031C392A2008A3027E
:100468002108A43B2208A53B2B140130A335A40D79
:10047800A50D890B3A2A0130AA02031D202A2B0850
:10048800F1002C08F2002D08F3002E08A60026081B
:10049800F4002F08A7002708F500E12271082000C2
:1004A800A0007208A1007308A200080020004008FC
:1004B800C4004108C5004208C6000310450D460D9A
:1004C800C7004708CD004D08031D732A0030C3003C
:1004D8000030C2000030C1000030C00008004008F1
:1004E800C4004108C5004208C6001730C636C50C0E
:1004F800C40C890B7A2A4408C7004708C800C117EA
:10050800FF30C005FF30C1050030C2054008C900F2
:100518004108CA004208CB00CC018E30CD02CD1F65
:10052800B12A4D08803A8F3E0318A32A0030C30031
:100538000030C2000030C1000030C00008000130A7
:10054800CC36CB0CCA0CC90C890BA42A0130C400C8
:100558004408CD070319CA2AA32A18304D02031CE0
:10056800C72A0030C3000030C2000030C10000308C
:10057800C00008000130C935CA0DCB0DCC0D890B60
:10058800BF2A0130CD024D08031DBE2A48080319B1
:10059800D82AC909CA09CB09CC09C90A0319CA0A40
:1005A8000319CB0A0319CC0A4C08C3004B08C20034
:1005B8004A08C1004908C000080074080319E92A5C
:1005C800730872047104031DFA2A0030F100003028
:1005D800F2000030F30008000130F6007608F40756
:1005E8000130F336F20CF10C890BF52AFE30730555
:1005F8000319132BF02A0130F6007608F4070130AE
:10060800F107003003180130F207003003180130F9
:10061800F3070130F336F20CF10C890B0E2BFF3087
:1006280073050319202BFF2A0130F4020130F1353C
:10063800F20DF30D890B1B2BF21B262B02307402D3
:100648000318182B74182E2BFF30F1057F30F20594
:10065800FF30F3050310F40C7408F600F701F801F5
:100668001030F635F70DF80D890B352B7608F104A7
:100678007708F2047808F304750803190800F317DB
:10068800080021001908873970389900FC3099054D
:1006980020008C01103021008C0022009D112300C5
:1006A8008C0122008C160C148C14200096019701E2
:1006B800D601D701D201D301D801D901D001D10186
:1006C800DA01DB016430DC000030DD001110911329
:1006D80018083F39403898009917FC309905991641
:1006E800191619178B170B172100911711140800E9
:1006F800F601F701710872040319AB2BF801F80A27
:10070800F21B902B0130F135F20D890B872B01304C
:10071800F5007508F807842B0130F635F70D890BBD
:10072800912B72087402031D9B2B71087302031C22
:10073800A22B7108F3027208F43B76140130F236EA
:10074800F10C890BA32B0130F802031D902B7708BD
:10075800F2007608F10008007908F1007A08F20042
:10076800F3018E30FC007C08F400F501E1227108E9
:10077800F9007208FA007308FB00080064008001A1
:080788000131890BC32B003481
:020000040001F9
:04000E00A4FFFFDF6D
:00000001FF
